:020000040800F2
:10000000000001200D1700083D16000849160008E1
:100010004F160008551600085B1600080000000087
:100020000000000000000000000000006116000851
:100030006D160008000000007916000885160008FB
:1000400055170008551700085517000855170008E0
:1000500055170008551700085517000855170008D0
:1000600055170008551700085517000855170008C0
:1000700055170008551700085517000855170008B0
:1000800055170008551700085517000855170008A0
:100090005517000855170008551700085517000890
:1000A0005517000855170008551700085517000880
:1000B0005517000855170008551700085517000870
:1000C0005517000855170008551700085517000860
:1000D0005517000855170008551700085517000850
:1000E00055170008551700085517000800000000B4
:1000F0000000000000000000000000000000000000
:100100000000000000000000551700085517000807
:10011000551700085517000855170008551700080F
:1001200055170008551700085517000855170008FF
:1001300055170008551700085517000855170008EF
:1001400055170008551700085517000855170008DF
:10015000000000000000000000000000000000009F
:10016000000000000000000000000000000000008F
:10017000000000000000000000000000000000007F
:10018000000000000000000000000000000000006F
:10019000000000000000000000000000000000005F
:1001A000000000000000000000000000000000004F
:1001B000000000000000000000000000000000003F
:1001C000000000000000000000000000000000002F
:1001D000000000000000000000000000000000001F
:0401E0005FF8E0F1F3
:1001E40010B5054C237833B9044B13B10448AFF36D
:1001F40000800123237010BD0C00002000000000CB
:10020400B017000808B5034B1BB103490348AFF30B
:10021400008008BD0000000010000020B017000896
:1002240053B94AB9002908BF00281CBF4FF0FF3159
:100234004FF0FF3000F07AB9ADF1080C6DE904CE4F
:1002440000F006F8DDF804E0DDE9022304B07047AD
:100254002DE9F0478C460E460446089D002B50D1EC
:100264008A4217466CD9B2FA82FEBEF1000F0BD057
:10027400CEF1200C01FA0EF620FA0CFC02FA0EF76D
:100284004CEA060C00FA0EF43A0CBCFBF2F9BBB2D1
:1002940002FB19CC09FB03FA4FEA144848EA0C465E
:1002A400B2450AD9F61909F1FF3180F02581B2452A
:1002B40040F22281A9F102093E44A6EB0A06B6FBEC
:1002C400F2F002FB106600FB03F3A4B244EA064416
:1002D400A34209D9E41900F1FF3280F00B81A34253
:1002E40040F2088102383C440021E41A40EA094003
:1002F400002D62D0002324FA0EF42C606B60BDE85C
:10030400F0878B4207D9002D55D0002185E84100A4
:100314000846BDE8F087B3FA83F1002940F08F80E6
:10032400B34202D3824200F2FC80841A66EB0306D5
:100334000120B446002D40D085E81010BDE8F087B8
:1003440012B90127B7FBF2F7B7FA87FEBEF1000F27
:1003540035D10121F61B4FEA174C1FFA87F8B6FB7B
:10036400FCF20CFB126608FB02F0230C43EA06467F
:10037400B04207D9F61902F1FF3302D2B04200F2BB
:10038400D2801A46361AB6FBFCF00CFB106608FB4A
:1003940000F8A3B243EA0644A04507D9E41900F1E2
:1003A400FF3302D2A04500F2B9801846A4EB08043A
:1003B40040EA02409CE729462846BDE8F08707FA50
:1003C4000EF7CEF1200326FA03F24FEA174CB2FBE4
:1003D400FCF11FFA87F80CFB112206FA0EF620FA3C
:1003E40003F301FB08F933431E0C46EA0246B14508
:1003F40000FA0EF409D9F61901F1FF3280F08C806D
:10040400B14540F2898002393E44A6EB0906B6FBA9
:10041400FCF00CFB106200FB08F99EB246EA0246AF
:10042400B14507D9F61900F1FF3371D2B1456FD93F
:1004340002383E44A6EB090640EA01418FE7C1F1C8
:10044400200722FA07F88B4048EA030326FA07F448
:100454004FEA134EB4FBFEF91FFA83FC0EFB19445A
:100464008E4020FA07F809FB0CFA48EA06084FEA1E
:10047400184646EA0444A24502FA01F200FA01F6DB
:1004840008D9E41809F1FF3044D2A24542D9A9F1B0
:1004940002091C44A4EB0A04B4FBFEF00EFB104456
:1004A40000FB0CFC1FFA88F848EA0444A44507D969
:1004B400E41800F1FF3E29D2A44527D902381C4490
:1004C40040EA0940A0FB0289A4EB0C0CCC45C246CF
:1004D400CE4615D312D055B1B6EB0A036CEB0E061B
:1004E40006FA07F7CB401F43CE402F606E60002111
:1004F400BDE8F0871046F7E68946DEE64645EAD2CF
:10050400B8EB020A69EB030E0138E4E77046D7E75B
:1005140018468FE78146BDE7114676E702383C442A
:1005240044E7084606E7023A3E442BE7704700BF1B
:1005340080B500AF084A084B1B6843F010031360F2
:10054400032000F005F9002000F008F801F042F85B
:100554000023184680BD00BF0020024080B582B051
:1005640000AF7860124B1A68124B1B7819464FF48F
:100574007A73B3FBF1F3B2FBF3F3184600F00FF90F
:100584000346002B01D001230EE07B680F2B0AD811
:10059400002279684FF0FF3000F0E5F8064A7B68E6
:1005A4001360002300E0012318460837BD4680BDD0
:1005B40008000020040000200000002080B400AFE8
:1005C400054B1B781A46054B1B681344034A1360FA
:1005D40000BFBD4680BC70470400002028000020F6
:1005E40080B400AF024B1B681846BD4680BC704700
:1005F4002800002080B485B000AF78607B6803F0E9
:100604000703FB600C4BDB68BB60BA684FF6FF0363
:100614001340BB60FB681A02BB68134343F0BF631B
:1006240043F40033BB60044ABB68D36000BF143793
:10063400BD4680BC704700BF00ED00E080B400AF51
:10064400044BDB681B0A03F007031846BD4680BC55
:10065400704700BF00ED00E080B483B000AF0346F4
:100664003960FB7197F90730002B0ADB0D4997F9C4
:1006740007303A68D2B21201D2B20B4483F8002395
:100684000AE00949FB7903F00F03043B3A68D2B24C
:100694001201D2B20B441A7600BF0C37BD4680BC9F
:1006A400704700BF00E100E000ED00E080B489B0D5
:1006B40000AFF860B9607A60FB6803F00703FB6180
:1006C400FB69C3F10703042B28BF0423BB61FB6947
:1006D4000433062B02D9FB69033B00E000237B6152
:1006E4000122BB6902FA03F35A1EBB681A407B69F4
:1006F4009A4001217B6901FA03F3591E7B680B4080
:10070400134318462437BD4680BC704780B582B079
:1007140000AF78607B68013BB3F1807F01D3012394
:100724000FE00A4A7B68013B53600F214FF0FF3012
:10073400FFF792FF054B00229A60044B07221A60D0
:10074400002318460837BD4680BD00BF10E000E016
:1007540080B582B000AF78607868FFF74BFF00BFC8
:100764000837BD4680BD80B586B000AF0346B9608A
:100774007A60FB7300237B61FFF760FF78617A681E
:10078400B9687869FFF792FF024697F90F3011466E
:100794001846FFF761FF00BF1837BD4680BD80B51E
:1007A40082B000AF78607868FFF7B0FF0346184660
:1007B4000837BD4680BD000080B48BB000AF7860C0
:1007C400396000237B6200233B6227E101227B6ABC
:1007D40002FA03F3FB613B681A68FB691340BB61CF
:1007E400BA69FB699A4240F016813B685B68122B38
:1007F40034D0122B0DD8022B2BD0022B04D8002B73
:1008040031D0012B1CD048E0032B43D0112B1BD03B
:1008140043E0894A934226D0874A934206D8874ABE
:10082400934220D0864A93421DD036E0854A9342B3
:1008340019D0854A934216D0844A934213D02CE0AF
:100844003B68DB683B6228E03B68DB6804333B625F
:1008540023E03B68DB6808333B621EE03B68DB68EF
:100864000C333B6219E03B689B68002B02D10423E4
:100874003B6212E03B689B68012B05D108233B6275
:100884007B68FA691A6108E008233B627B68FA69AD
:100894005A6102E000233B6200BFBB69FF2B01D811
:1008A4007B6801E07B6804337B61BB69FF2B02D862
:1008B4007B6A9B0002E07B6A083B9B003B617B698F
:1008C4001A680F213B6901FA03F3DB431A40396AC2
:1008D4003B6901FA03F31A437B691A603B685B685E
:1008E40003F08053002B00F09680594A584B9B69C3
:1008F40043F001039361564B9B6903F00103BB6012
:10090400BB68544A7B6A9B08023352F82330FB606D
:100914007B6A03F003039B000F2202FA03F3DB4319
:10092400FA681340FB607B684B4A934213D07B68A0
:100934004A4A93420DD07B68494A934207D07B6868
:10094400484A934201D1032306E0042304E002232E
:1009540002E0012300E000237A6A02F0030292001D
:100964009340FA681343FB603A497B6A9B0802335D
:10097400FA6841F823203B685B6803F48033002B5A
:1009840006D03949384B1A68BB6913430B6006E03B
:100994003549354B1A68BB69DB4313400B603B6830
:1009A4005B6803F40033002B06D02F492E4B5A68A2
:1009B400BB6913434B6006E02B492B4B5A68BB6958
:1009C400DB4313404B603B685B6803F48013002BEC
:1009D40006D02549244B9A68BB6913438B6006E013
:1009E4002149214B9A68BB69DB4313408B603B6808
:1009F4005B6803F40013002B06D01B491A4BDA681A
:100A0400BB691343CB6006E01749174BDA68BB692F
:100A1400DB431340CB607B6A01337B623B681A681B
:100A24007B6A22FA03F3002B7FF4D0AE00BF2C378D
:100A3400BD4680BC704700BF0000211000001110AB
:100A440000001210000031100000321000002210CB
:100A5400001002400000014000080140000C014069
:100A640000100140001401400004014080B483B030
:100A740000AF78600B467B8013467B707B78002B3D
:100A840003D07A887B681A6103E07B881A047B6848
:100A94001A6100BF0C37BD4680BC704780B586B074
:100AA40000AF78607B68002B01D1012304E37B68ED
:100AB4001B6803F00103002B00F08780924B5B68F6
:100AC40003F00C03042B0CD08F4B5B6803F00C0376
:100AD400082B12D18C4B5B6803F48033B3F5803F51
:100AE4000BD1894B1B6803F40033002B6CD07B685B
:100AF4009B68002B68D10123DEE27B689B68B3F519
:100B0400803F06D1804A804B1B6843F480331360D6
:100B14002EE07B689B68002B0CD17B4A7A4B1B68C8
:100B240023F480331360784A774B1B6823F48023C3
:100B340013601DE07B689B68B3F5A02F0CD1724A4B
:100B4400714B1B6843F4802313606F4A6E4B1B6820
:100B540043F4803313600BE06B4A6B4B1B6823F444
:100B640080331360684A684B1B6823F48023136046
:100B74007B689B68002B13D0FFF732FD386108E0D7
:100B8400FFF72EFD02463B69D31A642B01D90323D8
:100B940092E25D4B1B6803F40033002BF0D014E0A9
:100BA400FFF71EFD386108E0FFF71AFD02463B69B6
:100BB400D31A642B01D903237EE2534B1B6803F43D
:100BC4000033002BF0D100E000BF7B681B6803F00A
:100BD4000203002B63D04C4B5B6803F00C03002B27
:100BE4000BD0494B5B6803F00C03082B1CD1464B1C
:100BF4005B6803F48033002B16D1434B1B6803F06E
:100C04000203002B05D07B685B69012B01D0012313
:100C140052E23D493C4B1B6823F0F8027B689B6918
:100C2400DB0013430B603AE07B685B69002B20D048
:100C3400364B01221A60FFF7D3FC386108E0FFF756
:100C4400CFFC02463B69D31A022B01D9032333E2BA
:100C54002D4B1B6803F00203002BF0D02A492A4BCA
:100C64001B6823F0F8027B689B69DB0013430B606D
:100C740015E0264B00221A60FFF7B2FC386108E049
:100C8400FFF7AEFC02463B69D31A022B01D90323BA
:100C940012E21D4B1B6803F00203002BF0D17B68AA
:100CA4001B6803F00803002B3AD07B68DB69002B38
:100CB40019D0174B01221A60FFF792FC386108E043
:100CC400FFF78EFC02463B69D31A022B01D903239A
:100CD400F2E10D4B5B6A03F00203002BF0D001201C
:100CE40000F098FB1CE00A4B00221A60FFF778FC26
:100CF40038610FE0FFF774FC02463B69D31A022BFC
:100D040008D90323D8E100BF00100240000042428A
:100D1400800442429B4B5B6A03F00203002BE9D13F
:100D24007B681B6803F00403002B00F0A6800023FB
:100D3400FB75944BDB6903F08053002B0DD1914A72
:100D4400904BDB6943F08053D3618E4BDB6903F036
:100D54008053BB60BB680123FB758B4B1B6803F49A
:100D64008073002B18D1884A874B1B6843F4807327
:100D74001360FFF735FC386108E0FFF731FC0246E9
:100D84003B69D31A642B01D9032395E17E4B1B687D
:100D940003F48073002BF0D07B681B69012B06D110
:100DA400784A784B1B6A43F0010313622DE07B6899
:100DB4001B69002B0CD1734A724B1B6A23F001038D
:100DC4001362704A6F4B1B6A23F0040313621CE026
:100DD4007B681B69052B0CD16A4A6A4B1B6A43F07A
:100DE40004031362674A674B1B6A43F001031362EF
:100DF4000BE0644A634B1B6A23F001031362614AEC
:100E0400604B1B6A23F0040313627B681B69002B8D
:100E140015D0FFF7E5FB38610AE0FFF7E1FB024676
:100E24003B69D31A41F28832934201D9032343E147
:100E3400544B1B6A03F00203002BEED014E0FFF7BF
:100E4400CFFB38610AE0FFF7CBFB02463B69D31ABC
:100E540041F28832934201D903232DE1494B1B6AA5
:100E640003F00203002BEED1FB7D012B05D1454A93
:100E7400444BDB6923F08053D3617B68DB6A002B2E
:100E840000F08C803F4B5B6803F48033B3F5803F04
:100E94000ED13C4B5B6803F00C03082B08D1394B93
:100EA400DB6A03F48033B3F5803F01D1012303E10E
:100EB4007B68DB6A022B4ED1324B1B6803F08053F4
:100EC400002B09D02F4BDB6A03F0F0027B685B6BCD
:100ED4009A4201D00123EFE02C4B00221A60FFF765
:100EE4007FFB386108E0FFF77BFB02463B69D31ABE
:100EF400642B01D90323DFE0224B1B6803F000635A
:100F0400002BF0D11F491F4BDB6A23F0F0027B68F2
:100F14005B6B1343CB621B491A4BDB6A23F470628D
:100F24007B681B6B1343CB62184B01221A60FFF7DB
:100F340057FB386108E0FFF753FB02463B69D31ABD
:100F4400642B01D90323B7E00E4B1B6803F0006345
:100F5400002BF0D022E00B4A0A4BDB6A23F48033E7
:100F6400D3620A4B00221A60FFF73AFB38610FE0A4
:100F7400FFF736FB02463B69D31A642B08D90323D7
:100F84009AE000BF00100240007000406800424236
:100F94004B4B1B6803F00063002BE9D17B681B6A91
:100FA400002B00F08880464B5B6803F00C03082B91
:100FB40068D07B681B6A022B4DD1424B00221A6019
:100FC400FFF70EFB386108E0FFF70AFB02463B69B6
:100FD400D31A022B01D903236EE0394B1B6803F0AB
:100FE4000073002BF0D17B685B6AB3F5803F0FD1AF
:100FF4003349334BDA6A7B685B681343CB6230490D
:101004002F4BDB6A23F00F027B68DB681343CB6250
:101014002B482B4B5B6823F474127B68596A7B68FA
:101024009B6A0B4313434360264B01221A60FFF76C
:10103400D7FA386108E0FFF7D3FA02463B69D31ABE
:10104400022B01D9032337E01D4B1B6803F0007307
:10105400002BF0D02FE01B4B00221A60FFF7C0FAE0
:10106400386108E0FFF7BCFA02463B69D31A022B49
:1010740001D9032320E0124B1B6803F00073002BFB
:10108400F0D118E07B681B6A012B01D1012313E026
:101094000B4B5B68FB60FB6803F480327B685B6A24
:1010A4009A4206D1FB6803F470127B689B6A9A42E9
:1010B40001D0012300E0002318461837BD4680BD47
:1010C400001002406000424280B584B000AF7860F6
:1010D40039607B68002B01D10123D0E06A4B1B6887
:1010E40003F007023B689A4210D26749664B1B68BB
:1010F40023F007023B6813430B60634B1B6803F048
:1011040007023B689A4201D00123B8E07B681B6860
:1011140003F00203002B20D07B681B6803F0040358
:10112400002B05D0594A594B5B6843F4E063536084
:101134007B681B6803F00803002B05D0534A534B0C
:101144005B6843F4605353605049504B5B6823F031
:10115400F0027B689B6813434B607B681B6803F059
:101164000103002B40D07B685B68012B07D1474B00
:101174001B6803F40033002B15D101237FE07B6847
:101184005B68022B07D1414B1B6803F00073002BF3
:1011940009D1012373E03D4B1B6803F00203002BCC
:1011A40001D101236BE03949384B5B6823F003021A
:1011B4007B685B6813434B60FFF712FAF8600AE040
:1011C400FFF70EFA0246FB68D31A41F288329342C3
:1011D40001D9032353E02D4B5B6803F00C027B68B9
:1011E4005B689B009A42EBD1274B1B6803F0070214
:1011F4003B689A4210D92449234B1B6823F0070209
:101204003B6813430B60204B1B6803F007023B68E9
:101214009A4201D0012332E07B681B6803F0040387
:10122400002B08D01949194B5B6823F4E0627B68F2
:10123400DB6813434B607B681B6803F00803002BD7
:1012440009D01249114B5B6823F460527B681B6917
:10125400DB0013434B6000F021F801460B4B5B6845
:101264001B0903F00F030A4AD35C21FA03F3094A6A
:101274001360094B1B681846FFF770F900231846E2
:101284001037BD4680BD00BF002002400010024060
:10129400E81700080800002000000020F0B591B015
:1012A40000AF564B07F114040FCB07C42380544BF3
:1012B4003C1D0FCB84E80F0000237B6300233B63BA
:1012C4000023FB630023FB620023BB630023BB6298
:1012D40000237B624B4B5B687B637B6B03F00C03EB
:1012E400042B02D0082B03D07FE0474BBB637FE085
:1012F4007B6B9B0C03F00F0307F14002134413F8BC
:101304002C3CFB627B6B03F48033002B65D03D4B9C
:10131400DB6A03F00F0307F14002134413F83C3C6B
:101324003B63384BDB6A03F48033002B43D0354BEB
:10133400DB6A1B0903F00F030133BB62314BDB6A29
:101344001B0A03F00F0302337B627B6A19464FF0DA
:101354000002FB6A4FF0000403FB02F501FB04F0FA
:101364002844A1FB033402191446274A02FB04F162
:10137400002202FB03F20A442349A3FB01569319FA
:101384001E46BB6A19464FF000023B6B4FF0000447
:1013940003FB02FE01FB04F07044A1FB03340219B9
:1013A40014461A46234628463146FEF739FF0346BB
:1013B4000C46FB6307E0FB6A134A02FB03F23B6B38
:1013C400B2FBF3F3FB6397F821301A46FB6A9A42A7
:1013D40008D1FB6B5B08FB6304E0FB6A0B4A02FB6E
:1013E40003F3FB63FB6BBB6302E0094BBB6300BF0E
:1013F400BB6B18464437BD46F0BD00BFC817000894
:10140400D81700080010024040787D0100093D0013
:1014140000127A0080B485B000AF78600A4B1B6874
:101424000A4AA2FB03235B0A7A6802FB03F3FB600C
:1014340000BFFB685A1EFA60002BF9D100BF1437B5
:10144400BD4680BC704700BF08000020D34D621029
:1014540080B588B000AF07F1100300221A605A600B
:101464009A60DA60244A244B9B6943F040039361F9
:10147400214B9B6903F04003FB60FB681E4A1E4B33
:101484009B6943F0040393611B4B9B6903F00403C2
:10149400BB60BB68184A184B9B6943F0080393610F
:1014A400154B9B6903F008037B607B6800224FF4B3
:1014B4007F411248FFF7DAFA4FF47F433B6101237F
:1014C4007B610023BB610223FB6107F11003194612
:1014D4000A48FFF771F980233B6100237B610023F5
:1014E400BB6107F1100319460548FFF765F900BF12
:1014F4002037BD4680BD00BF0010024000180140E7
:10150400000C014080B582B000AF00237B60002353
:10151400FB70FFF70DF800F003F8FFF799FFFEE703
:1015240080B594B000AF07F11803382200211846A3
:1015340000F034F93B1D00221A605A609A60DA60A8
:101544001A610123BB614FF480333B6204237B6245
:101554000123FB624FF48033FB610223BB634FF42E
:101564008033FB634FF4E0133B6402237B644FF44A
:10157400C063BB644023FB6407F118031846FFF7FC
:101584008DFA0346002B01D000F01EF80F237B6078
:101594000223BB600023FB604FF480633B610023A4
:1015A4007B613B1D02211846FFF78EFD0346002B8D
:1015B40001D000F009F8034B01221A6000BF503734
:1015C400BD4680BD7000424280B400AF00BFBD463E
:1015D40080BC704780B485B000AF154A144B9B693A
:1015E40043F001039361124B9B6903F00103BB6059
:1015F400BB680F4A0E4BDB6943F08053D3610C4B3D
:10160400DB6903F080537B607B680A4B5B68FB609B
:10161400FB6823F0E063FB60FB6843F00073FB604E
:10162400044AFB68536000BF1437BD4680BC704752
:10163400001002400000014080B400AF00BFBD466E
:1016440080BC704780B400AFFEE780B400AFFEE713
:1016540080B400AFFEE780B400AFFEE780B400AF13
:1016640000BFBD4680BC704780B400AF00BFBD461C
:1016740080BC704780B400AF00BFBD4680BC7047DB
:1016840080B500AFFEF79AFF00BF80BD80B400AF05
:101694001A4A1A4B1B6843F0010313601749174B8E
:1016A4005A68174B13404B60144A144B1B6823F0C1
:1016B400847323F480331360104A104B1B6823F4A3
:1016C400802313600D4A0D4B5B6823F4FE035360C3
:1016D4000A4A0A4B1B6823F0A0531360074B4FF4CC
:1016E4007F029A60054B0022DA62064B4FF00062DB
:1016F4009A6000BFBD4680BC704700BF0010024026
:101704000000FFF000ED00E0002103E00B4B5B580C
:10171400435004310A480B4B42189A42F6D30A4A02
:1017240002E0002342F8043B084B9A42F9D3FFF746
:10173400ADFF00F00FF8FFF7E5FE7047081800084A
:10174400000000200C0000200C0000202C000020D1
:10175400FEE7000070B500250C4E0D4CA41BA41030
:10176400A54209D100F022F800250A4E0A4CA41B18
:10177400A410A54205D170BD56F82530984701350F
:10178400EEE756F8253098470135F2E700180008CF
:101794000018000800180008041800080346024452
:1017A400934200D1704703F8011BF9E7F8B500BF75
:1017B400F8BC08BC9E467047F8B500BFF8BC08BC2E
:0417C4009E46704786
:1017C800000004050607080900000000000D0000DD
:1017D8000102030405060708090A0B0C0D0E0F1079
:1017E80000000000000000000102030406070809C9
:0817F8005CEAFF7F0100000024
:0418000009020008D1
:04180400E5010008F2
:0C18080010000000010000000024F400AB
:040000050800170DCB
:00000001FF
